:1000000012C0189518951895189518951895189563
:100010001895189518951895189518951895189578
:100020001895189518958FED8DBFC8EBE0EA4E2E08
:10003000DD275D2EA89584B7082E877F84BF88E1D1
:10004000992781BD91BDEEE7F0E0A0E6B0E08827FA
:100050008D933197E9F7662474B7777F74BF8EE18B
:1000600081BD86E081BD8FEF87BBD098D1988898FD
:1000700089988A988B9A8C9A8D9A8E9A84E690E0C9
:10008000A1E68D939C93709163007F7770936300DA
:10009000709163007F7B70936300709163007F7D3C
:1000A00070936300709163007F7E7093630070E0D3
:1000B00078BB939894989598969880E08093600088
:1000C00000916000073010F009F022C080916000BC
:1000D000A8E380D175D10C900822689409F4E894C3
:1000E000882780F9809580FB80916000A8E372D119
:1000F00067D10C9016F0092201C0082A0C928AEFF1
:1001000090E04FD1A0E68C918F5F8C9308F4D8CF0C
:1001100080E08093600000916000073010F009F0EB
:1001200022C080916000A8E355D14AD10C900822EA
:10013000689409F4E894882780F9809580FB809181
:100140006000A8E347D13CD10C9016F0092201C011
:10015000082A0C928AEF90E024D1A0E68C918F5F60
:100160008C9308F4D8CF88EE93E01BD181B58860DA
:1001700081BDA9E30C9100FB81E00EF080E08F933C
:10018000A3E68C9187FB81E00EF480E09F918923A8
:10019000882309F40EC07091630070687093630047
:1001A00082B398E0892782BB84E690E0A1E68D9334
:1001B0009C93A9E30C9101FB81E00EF080E08F930A
:1001C000A3E68C9186FB81E00EF480E09F91892369
:1001D000882309F40EC0709163007064709363000B
:1001E00082B390E1892782BB84E690E0A1E68D93FB
:1001F0009C93A0E30C9100FB81E00EF080E08F93D4
:10020000A3E68C9185FB81E00EF480E09F91892329
:10021000882309F40EC070916300706270936300CC
:1002200082B390E2892782BB84E690E0A1E68D93B9
:100230009C93A0E30C9101FB81E00EF080E08F9392
:10024000A3E68C9184FB81E00EF480E09F918923EA
:10025000882309F40EC0709163007061709363008D
:1002600082B390E4892782BB84E690E0A1E68D9377
:100270009C93C89905C0709163007F777093630069
:10028000C99905C0709163007F7B7093630080996A
:1002900005C0709163007F7D70936300819905C0F4
:1002A000709163007F7E70936300A1E60D911C91B5
:1002B000003050E0150714F009F001C046C0A1E677
:1002C00060D0A2E38C9183FBA8E38C9180F98C939E
:1002D000A2E38C9183FB80F9809580FBA8E38C914D
:1002E00081F98C93A2E38C9184FBA8E38C9182F931
:1002F0008C93A2E38C9184FB80F9809580FBA8E32A
:100300008C9183F98C93A2E38C9185FBA8E38C916B
:1003100084F98C93A2E38C9185FB80F9809580FB16
:10032000A8E38C9185F98C93A2E38C9186FBA8E3DA
:100330008C9186F98C93A2E38C9186FB80F9809551
:1003400080FBA8E38C9187F98C93A1E60D911C9119
:10035000003050E0150709F002C070E078BB8299C8
:1003600009C084E690E0A1E68D939C9393989498BD
:1003700095989698A89584E690E013D0FACEF894D4
:10038000FFCFED91FC91E150F040FC93EE93089586
:100390003197F1F70895689462F80895E89462F847
:1003A0000895EF93FF93EE27E82BE92B31F0E0ED72
:1003B000F7E03197F1F70197D1F7FF91EF910895A9
:1003C00091E0882321F08894991F8A95E9F7892F75
:1003D00090950895883018F011968850FBCF0895B5
:00000001FF
